:020000040020DA
:1000000008040020DD012000B7022000B302200018
:10001000B502200025022000FD03200000000000A2
:10002000000000000000000000000000BB022000F3
:10003000B102200000000000B9022000BD02200033
:10004000F7012000F7012000F7012000F701200050
:10005000F7012000F7012000F7012000F701200040
:10006000F7012000F7012000F7012000F701200030
:10007000F7012000F7012000F7012000F701200020
:10008000F7012000F7012000F7012000F701200010
:10009000F7012000F7012000F7012000F701200000
:1000A000F7012000F7012000F7012000F7012000F0
:1000B000F7012000F7012000F7012000F7012000E0
:1000C000F7012000F7012000F7012000F7012000D0
:1000D000F7012000F7012000F7012000F7012000C0
:1000E000F7012000F7012000F7012000F7012000B0
:1000F000F7012000F7012000F7012000F7012000A0
:10010000F7012000F7012000F7012000F70120008F
:10011000F7012000F7012000F7012000F70120007F
:10012000F7012000F7012000F7012000F70120006F
:10013000F7012000F7012000F7012000F70120005F
:10014000F7012000F7012000F7012000F70120004F
:10015000F7012000F7012000F7012000F70120003F
:10016000F7012000F7012000F7012000F70120002F
:10017000F7012000F7012000F70120000000000037
:10018000F7012000F7012000F7012000F70120000F
:10019000F7012000F7012000F7012000F7012000FF
:1001A000F7012000F7012000F7012000F7012000EF
:1001B000F7012000F7012000F7012000F7012000DF
:1001C000F7012000F7012000DFF80CD000F018F84C
:1001D000004800471D04200008040020064880470E
:1001E00006480047FEE7FEE7FEE7FEE7FEE7FEE71C
:1001F000FEE7FEE7FEE7FEE7A9032000C9012000B5
:10020000064C074D06E0E06840F0010394E8070063
:1002100098471034AC42F6D3FFF7DAFF34042000DD
:1002200054042000FEE700001F4B0020F0B51968C1
:10023000890311D4BFF34F8FBFF36F8F1B49086041
:10024000BFF34F8FBFF36F8F196841F4003119600E
:10025000BFF34F8FBFF36F8F1968C90323D41249BF
:1002600070310860BFF34F8F081F43F6FF740068BA
:100270000E4D1035C0F34E31C0F3C90204EA4116E9
:10028000104600BF46EA80772F60401EFAD2491E12
:10029000F4D2BFF34F8F186840F480301860BFF37A
:1002A0004F8FBFF36F8FF0BD14ED00E050EF00E013
:1002B0007047FEE7FEE770477047704770470000E1
:1002C000314808B5016821F00F0141F007010160D4
:1002D0002E48016841F080510160006800F08050B4
:1002E00000902B48016841F4803101604168C1F3FE
:1002F00000410029FAD0016841F4003101604168F1
:10030000C1F340410029FAD0204946F61040214B64
:100310003C390A681A4010430860081F016841F020
:10032000807101600168C1F340610029FAD017486B
:100330003838016821F0F0010160016821F0030103
:1003400041F002010160016801F00C010829FAD1B5
:10035000016821F4E05141F4A0510160016821F4E9
:10036000604141F4004101604FF0E0200A494161E1
:10037000F0210A4A82F8141D0021072281610261DE
:1003800008490748086008BD003C02404038024068
:10039000007000400080BCFFBF4B03000FE000E096
:1003A00000E6DF0C04000020104A30B51048146845
:1003B00000210F4B44F470041460083305680D4AA3
:1003C0000D4C45F00105056019600368051D1340DB
:1003D000074A03600C322C600568E305034C25F4E2
:1003E00080250560803C1160236030BD88ED00E011
:1003F00000380240FFFFF6FE10300024FEE702E066
:1004000008C8121F08C1002AFAD17047704700209F
:1004100001E001C1121F002AFBD17047FFF704FF62
:10042000FFF74EFF02480168491C0160FCE700002D
:1004300000000020540420000000002008000000FC
:10044000FE0320005C0420000800002000040000DF
:0C0450000E042000000000000024F40056
:04000005002001C90D
:00000001FF
